{
  "_format": "hh3-artifact-1",
  "contractName": "SplitManager",
  "sourceName": "contracts/SplitManager.sol",
  "abi": [
    {
      "inputs": [
        {
          "internalType": "address",
          "name": "token",
          "type": "address"
        }
      ],
      "name": "SafeERC20FailedOperation",
      "type": "error"
    },
    {
      "anonymous": false,
      "inputs": [
        {
          "indexed": true,
          "internalType": "uint256",
          "name": "splitId",
          "type": "uint256"
        },
        {
          "indexed": true,
          "internalType": "address",
          "name": "debtor",
          "type": "address"
        },
        {
          "indexed": true,
          "internalType": "address",
          "name": "creditor",
          "type": "address"
        },
        {
          "indexed": false,
          "internalType": "uint256",
          "name": "amount",
          "type": "uint256"
        },
        {
          "indexed": false,
          "internalType": "address",
          "name": "token",
          "type": "address"
        }
      ],
      "name": "DebtPaid",
      "type": "event"
    },
    {
      "anonymous": false,
      "inputs": [
        {
          "indexed": true,
          "internalType": "uint256",
          "name": "splitId",
          "type": "uint256"
        },
        {
          "indexed": true,
          "internalType": "address",
          "name": "member",
          "type": "address"
        }
      ],
      "name": "MemberAdded",
      "type": "event"
    },
    {
      "anonymous": false,
      "inputs": [
        {
          "indexed": true,
          "internalType": "uint256",
          "name": "splitId",
          "type": "uint256"
        },
        {
          "indexed": true,
          "internalType": "address",
          "name": "member",
          "type": "address"
        }
      ],
      "name": "MemberRemoved",
      "type": "event"
    },
    {
      "anonymous": false,
      "inputs": [
        {
          "indexed": true,
          "internalType": "uint256",
          "name": "splitId",
          "type": "uint256"
        },
        {
          "indexed": false,
          "internalType": "uint256",
          "name": "spendingId",
          "type": "uint256"
        },
        {
          "indexed": false,
          "internalType": "string",
          "name": "title",
          "type": "string"
        },
        {
          "indexed": true,
          "internalType": "address",
          "name": "payer",
          "type": "address"
        },
        {
          "indexed": false,
          "internalType": "uint256",
          "name": "amount",
          "type": "uint256"
        },
        {
          "indexed": false,
          "internalType": "address[]",
          "name": "forWho",
          "type": "address[]"
        },
        {
          "indexed": false,
          "internalType": "address",
          "name": "token",
          "type": "address"
        }
      ],
      "name": "SpendingAdded",
      "type": "event"
    },
    {
      "anonymous": false,
      "inputs": [
        {
          "indexed": true,
          "internalType": "uint256",
          "name": "splitId",
          "type": "uint256"
        },
        {
          "indexed": true,
          "internalType": "address",
          "name": "creator",
          "type": "address"
        },
        {
          "indexed": false,
          "internalType": "address[]",
          "name": "initialMembers",
          "type": "address[]"
        },
        {
          "indexed": false,
          "internalType": "address",
          "name": "defaultToken",
          "type": "address"
        }
      ],
      "name": "SplitCreated",
      "type": "event"
    },
    {
      "inputs": [
        {
          "internalType": "uint256",
          "name": "splitId",
          "type": "uint256"
        },
        {
          "internalType": "address",
          "name": "member",
          "type": "address"
        }
      ],
      "name": "addMember",
      "outputs": [],
      "stateMutability": "nonpayable",
      "type": "function"
    },
    {
      "inputs": [
        {
          "internalType": "uint256",
          "name": "splitId",
          "type": "uint256"
        },
        {
          "internalType": "string",
          "name": "title",
          "type": "string"
        },
        {
          "internalType": "uint256",
          "name": "amount",
          "type": "uint256"
        },
        {
          "internalType": "address[]",
          "name": "forWho",
          "type": "address[]"
        }
      ],
      "name": "addSpending",
      "outputs": [],
      "stateMutability": "nonpayable",
      "type": "function"
    },
    {
      "inputs": [
        {
          "internalType": "address[]",
          "name": "initialMembers",
          "type": "address[]"
        },
        {
          "internalType": "address",
          "name": "defaultToken",
          "type": "address"
        }
      ],
      "name": "createSplit",
      "outputs": [
        {
          "internalType": "uint256",
          "name": "splitId",
          "type": "uint256"
        }
      ],
      "stateMutability": "nonpayable",
      "type": "function"
    },
    {
      "inputs": [
        {
          "internalType": "uint256",
          "name": "",
          "type": "uint256"
        },
        {
          "internalType": "address",
          "name": "",
          "type": "address"
        },
        {
          "internalType": "address",
          "name": "",
          "type": "address"
        }
      ],
      "name": "debts",
      "outputs": [
        {
          "internalType": "address",
          "name": "debtor",
          "type": "address"
        },
        {
          "internalType": "address",
          "name": "creditor",
          "type": "address"
        },
        {
          "internalType": "uint256",
          "name": "amount",
          "type": "uint256"
        },
        {
          "internalType": "address",
          "name": "token",
          "type": "address"
        },
        {
          "internalType": "bool",
          "name": "isPaid",
          "type": "bool"
        }
      ],
      "stateMutability": "view",
      "type": "function"
    },
    {
      "inputs": [
        {
          "internalType": "uint256",
          "name": "splitId",
          "type": "uint256"
        },
        {
          "internalType": "address",
          "name": "debtor",
          "type": "address"
        },
        {
          "internalType": "address",
          "name": "creditor",
          "type": "address"
        }
      ],
      "name": "getDebt",
      "outputs": [
        {
          "components": [
            {
              "internalType": "address",
              "name": "debtor",
              "type": "address"
            },
            {
              "internalType": "address",
              "name": "creditor",
              "type": "address"
            },
            {
              "internalType": "uint256",
              "name": "amount",
              "type": "uint256"
            },
            {
              "internalType": "address",
              "name": "token",
              "type": "address"
            },
            {
              "internalType": "bool",
              "name": "isPaid",
              "type": "bool"
            }
          ],
          "internalType": "struct SplitManager.Debt",
          "name": "",
          "type": "tuple"
        }
      ],
      "stateMutability": "view",
      "type": "function"
    },
    {
      "inputs": [
        {
          "internalType": "uint256",
          "name": "splitId",
          "type": "uint256"
        },
        {
          "internalType": "address",
          "name": "debtor",
          "type": "address"
        }
      ],
      "name": "getDebtorDebts",
      "outputs": [
        {
          "internalType": "address[]",
          "name": "creditors",
          "type": "address[]"
        },
        {
          "internalType": "uint256[]",
          "name": "amounts",
          "type": "uint256[]"
        }
      ],
      "stateMutability": "view",
      "type": "function"
    },
    {
      "inputs": [
        {
          "internalType": "uint256",
          "name": "splitId",
          "type": "uint256"
        }
      ],
      "name": "getSpendings",
      "outputs": [
        {
          "components": [
            {
              "internalType": "uint256",
              "name": "id",
              "type": "uint256"
            },
            {
              "internalType": "string",
              "name": "title",
              "type": "string"
            },
            {
              "internalType": "address",
              "name": "payer",
              "type": "address"
            },
            {
              "internalType": "uint256",
              "name": "amount",
              "type": "uint256"
            },
            {
              "internalType": "address[]",
              "name": "forWho",
              "type": "address[]"
            },
            {
              "internalType": "uint256",
              "name": "timestamp",
              "type": "uint256"
            },
            {
              "internalType": "address",
              "name": "token",
              "type": "address"
            }
          ],
          "internalType": "struct SplitManager.Spending[]",
          "name": "",
          "type": "tuple[]"
        }
      ],
      "stateMutability": "view",
      "type": "function"
    },
    {
      "inputs": [
        {
          "internalType": "uint256",
          "name": "splitId",
          "type": "uint256"
        }
      ],
      "name": "getSplitDetails",
      "outputs": [
        {
          "internalType": "address",
          "name": "creator",
          "type": "address"
        },
        {
          "internalType": "address[]",
          "name": "members",
          "type": "address[]"
        },
        {
          "internalType": "uint256",
          "name": "createdAt",
          "type": "uint256"
        },
        {
          "internalType": "uint256",
          "name": "totalDebt",
          "type": "uint256"
        },
        {
          "internalType": "address",
          "name": "defaultToken",
          "type": "address"
        },
        {
          "internalType": "uint256",
          "name": "spendingCounter",
          "type": "uint256"
        }
      ],
      "stateMutability": "view",
      "type": "function"
    },
    {
      "inputs": [
        {
          "internalType": "uint256",
          "name": "splitId",
          "type": "uint256"
        },
        {
          "internalType": "address",
          "name": "creditor",
          "type": "address"
        },
        {
          "internalType": "uint256",
          "name": "amount",
          "type": "uint256"
        }
      ],
      "name": "payDebt",
      "outputs": [],
      "stateMutability": "payable",
      "type": "function"
    },
    {
      "inputs": [
        {
          "internalType": "uint256",
          "name": "splitId",
          "type": "uint256"
        },
        {
          "internalType": "address",
          "name": "member",
          "type": "address"
        }
      ],
      "name": "removeMember",
      "outputs": [],
      "stateMutability": "nonpayable",
      "type": "function"
    },
    {
      "inputs": [
        {
          "internalType": "uint256",
          "name": "",
          "type": "uint256"
        },
        {
          "internalType": "uint256",
          "name": "",
          "type": "uint256"
        }
      ],
      "name": "splitSpendings",
      "outputs": [
        {
          "internalType": "uint256",
          "name": "id",
          "type": "uint256"
        },
        {
          "internalType": "string",
          "name": "title",
          "type": "string"
        },
        {
          "internalType": "address",
          "name": "payer",
          "type": "address"
        },
        {
          "internalType": "uint256",
          "name": "amount",
          "type": "uint256"
        },
        {
          "internalType": "uint256",
          "name": "timestamp",
          "type": "uint256"
        },
        {
          "internalType": "address",
          "name": "token",
          "type": "address"
        }
      ],
      "stateMutability": "view",
      "type": "function"
    },
    {
      "inputs": [
        {
          "internalType": "uint256",
          "name": "",
          "type": "uint256"
        }
      ],
      "name": "splits",
      "outputs": [
        {
          "internalType": "address",
          "name": "creator",
          "type": "address"
        },
        {
          "internalType": "uint256",
          "name": "createdAt",
          "type": "uint256"
        },
        {
          "internalType": "uint256",
          "name": "totalDebt",
          "type": "uint256"
        },
        {
          "internalType": "address",
          "name": "defaultToken",
          "type": "address"
        },
        {
          "internalType": "uint256",
          "name": "spendingCounter",
          "type": "uint256"
        }
      ],
      "stateMutability": "view",
      "type": "function"
    }
  ],
  "bytecode": "0x6080604052348015600e575f5ffd5b506122158061001c5f395ff3fe6080604052600436106100a5575f3560e01c8063884c300611610062578063884c300614610251578063d7d9f9ec146102dd578063de671346146102f0578063eea81f971461031c578063f6b30c6014610349578063fd6eb8e71461037a575f5ffd5b806308fcd3e0146100a95780631ba5492a146100ca5780635bc4164e1461010457806368e9eacc146101725780636be7658b1461021357806374d0a67614610232575b5f5ffd5b3480156100b4575f5ffd5b506100c86100c3366004611b19565b6103a7565b005b3480156100d5575f5ffd5b506100e96100e4366004611bea565b610811565b6040516100fb96959493929190611c38565b60405180910390f35b34801561010f575f5ffd5b5061012361011e366004611c83565b6108f6565b6040516100fb919081516001600160a01b039081168252602080840151821690830152604080840151908301526060808401519091169082015260809182015115159181019190915260a00190565b34801561017d575f5ffd5b506101dc61018c366004611c83565b600360208181525f948552604080862082529385528385209052908352912080546001820154600283015492909301546001600160a01b039182169382169291811690600160a01b900460ff1685565b604080516001600160a01b03968716815294861660208601528401929092529092166060820152901515608082015260a0016100fb565b34801561021e575f5ffd5b506100c861022d366004611cbc565b6109cb565b34801561023d575f5ffd5b506100c861024c366004611cbc565b610c40565b34801561025c575f5ffd5b506102a661026b366004611ce6565b60016020525f9081526040902080546002820154600383015460048401546005909401546001600160a01b0393841694929391929091169085565b604080516001600160a01b03968716815260208101959095528401929092529092166060820152608081019190915260a0016100fb565b6100c86102eb366004611cfd565b610ddf565b3480156102fb575f5ffd5b5061030f61030a366004611ce6565b611146565b6040516100fb9190611d30565b348015610327575f5ffd5b5061033b610336366004611cbc565b611337565b6040516100fb929190611e80565b348015610354575f5ffd5b50610368610363366004611ce6565b6115f6565b6040516100fb96959493929190611ed8565b348015610385575f5ffd5b50610399610394366004611f29565b6116e2565b6040519081526020016100fb565b5f8481526001602052604090205484906001600160a01b03166103e55760405162461bcd60e51b81526004016103dc90611f6b565b60405180910390fd5b6103ef8533611889565b61043b5760405162461bcd60e51b815260206004820152601a60248201527f4e6f742061206d656d626572206f6620746869732073706c697400000000000060448201526064016103dc565b5f831161048a5760405162461bcd60e51b815260206004820152601d60248201527f416d6f756e74206d7573742062652067726561746572207468616e203000000060448201526064016103dc565b5f8581526001602052604081206004810154845191926001600160a01b0390911691156104b75784610513565b8260010180548060200260200160405190810160405280929190818152602001828054801561050d57602002820191905f5260205f20905b81546001600160a01b031681526001909101906020018083116104ef575b50505050505b90505f5b8151811015610597576105438983838151811061053657610536611f99565b6020026020010151611889565b61058f5760405162461bcd60e51b815260206004820152601860248201527f5061727469636970616e74206e6f742061206d656d626572000000000000000060448201526064016103dc565b600101610517565b506040805160e0810182526005850154815260208082018a81523383850152606083018a9052608083018590524260a08401526001600160a01b03861660c08401525f8c815260028352938420805460018181018355918652929094208351600790930201918255519192839290820190610612908261202b565b5060408201516002820180546001600160a01b0319166001600160a01b03909216919091179055606082015160038201556080820151805161065e9160048401916020909101906119bb565b5060a082015160058281019190915560c090920151600690910180546001600160a01b0319166001600160a01b0390921691909117905584018054905f6106a4836120fa565b91905055505f8251886106b79190612112565b90505f5b83518110156107c0575f8482815181106106d7576106d7611f99565b60200260200101519050336001600160a01b0316816001600160a01b03160361070057506107b8565b5f8c81526003602090815260408083206001600160a01b03808616855290835281842033855290925290912080549091166107845780546001600160a01b038084166001600160a01b03199283161783556001830180549092163317909155600382018054600284018790556001600160a81b03191691891691909117905561079d565b83816002015f8282546107979190612131565b90915550505b83886003015f8282546107b09190612131565b909155505050505b6001016106bb565b50815160405133918c917f2c7ccd69f0077c7faf2e0d016afeebacf152c496783c59c8f73909bcbc457188916107fd918e908e908a908c90612144565b60405180910390a350505050505050505050565b6002602052815f5260405f20818154811061082a575f80fd5b905f5260205f2090600702015f9150915050805f01549080600101805461085090611fad565b80601f016020809104026020016040519081016040528092919081815260200182805461087c90611fad565b80156108c75780601f1061089e576101008083540402835291602001916108c7565b820191905f5260205f20905b8154815290600101906020018083116108aa57829003601f168201915b50505060028401546003850154600586015460069096015494956001600160a01b039283169591945092501686565b6040805160a0810182525f808252602082018190529181018290526060810182905260808101919091525f8481526001602052604090205484906001600160a01b03166109555760405162461bcd60e51b81526004016103dc90611f6b565b50505f9283526003602081815260408086206001600160a01b0395861687528252808620938516865292815293829020825160a081018452815485168152600182015485169581019590955260028101549285019290925201549081166060830152600160a01b900460ff161515608082015290565b5f8281526001602052604090205482906001600160a01b0316610a005760405162461bcd60e51b81526004016103dc90611f6b565b5f8381526001602052604090205483906001600160a01b03163314610a5f5760405162461bcd60e51b81526020600482015260156024820152742737ba103a34329039b83634ba1031b932b0ba37b960591b60448201526064016103dc565b5f848152600160205260409020546001600160a01b0390811690841603610ac05760405162461bcd60e51b815260206004820152601560248201527421b0b73737ba103932b6b7bb329031b932b0ba37b960591b60448201526064016103dc565b5f848152600160208190526040822001905b8154811015610bfe57846001600160a01b0316828281548110610af757610af7611f99565b5f918252602090912001546001600160a01b031603610bf65781548290610b209060019061218f565b81548110610b3057610b30611f99565b905f5260205f20015f9054906101000a90046001600160a01b0316828281548110610b5d57610b5d611f99565b905f5260205f20015f6101000a8154816001600160a01b0302191690836001600160a01b0316021790555081805480610b9857610b986121a2565b5f8281526020812082015f1990810180546001600160a01b03191690559091019091556040516001600160a01b0387169188917f1c4c9d2e56d0635d11bc47c997c6909a0d7061f55cbb8f4b27386db37553191c9190a35050610c3a565b600101610ad2565b5060405162461bcd60e51b815260206004820152601060248201526f13595b58995c881b9bdd08199bdd5b9960821b60448201526064016103dc565b50505050565b5f8281526001602052604090205482906001600160a01b0316610c755760405162461bcd60e51b81526004016103dc90611f6b565b5f8381526001602052604090205483906001600160a01b03163314610cd45760405162461bcd60e51b81526020600482015260156024820152742737ba103a34329039b83634ba1031b932b0ba37b960591b60448201526064016103dc565b6001600160a01b038316610d235760405162461bcd60e51b8152602060048201526016602482015275496e76616c6964206d656d626572206164647265737360501b60448201526064016103dc565b610d2d8484611889565b15610d725760405162461bcd60e51b81526020600482015260156024820152744d656d62657220616c72656164792065786973747360581b60448201526064016103dc565b5f848152600160208181526040808420830180549384018155845290832090910180546001600160a01b0319166001600160a01b0387169081179091559051909186917ff328ac0f8bcae00933fe87ba0aa2d0d505c1df94bc9c1aa05b8441c28b74032c9190a350505050565b5f8381526001602052604090205483906001600160a01b0316610e145760405162461bcd60e51b81526004016103dc90611f6b565b5f84815260036020908152604080832033845282528083206001600160a01b03878116855292529091208054909116610e805760405162461bcd60e51b815260206004820152600e60248201526d4e6f20646562742065786973747360901b60448201526064016103dc565b6003810154600160a01b900460ff1615610ed05760405162461bcd60e51b81526020600482015260116024820152701119589d08185b1c9958591e481c185a59607a1b60448201526064016103dc565b5f83118015610ee3575080600201548311155b610f285760405162461bcd60e51b8152602060048201526016602482015275125b9d985b1a59081c185e5b595b9d08185b5bdd5b9d60521b60448201526064016103dc565b5f858152600160205260409020600401546001600160a01b03168061102857833414610f8d5760405162461bcd60e51b8152602060048201526014602482015273125b98dbdc9c9958dd0811551208185b5bdd5b9d60621b60448201526064016103dc565b5f856001600160a01b0316856040515f6040518083038185875af1925050503d805f8114610fd6576040519150601f19603f3d011682016040523d82523d5f602084013e610fdb565b606091505b50509050806110225760405162461bcd60e51b8152602060048201526013602482015272115512081d1c985b9cd9995c8819985a5b1959606a1b60448201526064016103dc565b50611097565b34156110825760405162461bcd60e51b815260206004820152602360248201527f455448206e6f7420616363657074656420666f7220746f6b656e207061796d656044820152626e747360e81b60648201526084016103dc565b6110976001600160a01b0382163387876118f8565b83826002015f8282546110aa919061218f565b90915550505f86815260016020526040812060030180548692906110cf90849061218f565b909155505060028201545f036110f55760038201805460ff60a01b1916600160a01b1790555b604080518581526001600160a01b038381166020830152871691339189917f461b6f49dbb726329ab3370faf615b26d2507c1ea8f3d7e9d9c21fe127e62fff910160405180910390a4505050505050565b5f8181526001602052604090205460609082906001600160a01b031661117e5760405162461bcd60e51b81526004016103dc90611f6b565b5f83815260026020908152604080832080548251818502810185019093528083529193909284015b8282101561132a578382905f5260205f2090600702016040518060e00160405290815f82015481526020016001820180546111e090611fad565b80601f016020809104026020016040519081016040528092919081815260200182805461120c90611fad565b80156112575780601f1061122e57610100808354040283529160200191611257565b820191905f5260205f20905b81548152906001019060200180831161123a57829003601f168201915b50505050508152602001600282015f9054906101000a90046001600160a01b03166001600160a01b03166001600160a01b0316815260200160038201548152602001600482018054806020026020016040519081016040528092919081815260200182805480156112ef57602002820191905f5260205f20905b81546001600160a01b031681526001909101906020018083116112d1575b505050918352505060058201546020808301919091526006909201546001600160a01b031660409091015290825260019290920191016111a6565b5050505091505b50919050565b5f82815260016020526040902054606090819084906001600160a01b03166113715760405162461bcd60e51b81526004016103dc90611f6b565b5f858152600160208181526040808420909201805483518184028101840190945280845290918301828280156113ce57602002820191905f5260205f20905b81546001600160a01b031681526001909101906020018083116113b0575b509394505f935083925050505b8251811015611462575f8881526003602090815260408083206001600160a01b038b16845290915281208451829086908590811061141b5761141b611f99565b60200260200101516001600160a01b03166001600160a01b031681526020019081526020015f2060020154111561145a5781611456816120fa565b9250505b6001016113db565b508067ffffffffffffffff81111561147c5761147c611a32565b6040519080825280602002602001820160405280156114a5578160200160208202803683370190505b5094508067ffffffffffffffff8111156114c1576114c1611a32565b6040519080825280602002602001820160405280156114ea578160200160208202803683370190505b5093505f805b83518110156115ea575f8981526003602090815260408083206001600160a01b038c16845290915281208551829087908590811061153057611530611f99565b60200260200101516001600160a01b03166001600160a01b031681526020019081526020015f2090505f816002015411156115e15784828151811061157757611577611f99565b602002602001015188848151811061159157611591611f99565b60200260200101906001600160a01b031690816001600160a01b03168152505080600201548784815181106115c8576115c8611f99565b6020908102919091010152826115dd816120fa565b9350505b506001016114f0565b50505050509250929050565b5f81815260016020526040812054606090829081908190819087906001600160a01b03166116365760405162461bcd60e51b81526004016103dc90611f6b565b5f88815260016020818152604092839020805460028201546003830154600484015460058501549685018054895181890281018901909a52808a5295986001600160a01b039586169891979496939590921693909287918301828280156116c457602002820191905f5260205f20905b81546001600160a01b031681526001909101906020018083116116a6575b50505050509450975097509750975097509750505091939550919395565b5f805481806116f0836120fa565b909155505f81815260016020818152604083208054336001600160a01b03199182168117835542600284015560048301805483166001600160a01b038b16179055600583018690556003830186905582850180549586018155865292852090930180549093169091179091559192505b845181101561183d575f85828151811061177c5761177c611f99565b602002602001015190505f6001600160a01b0316816001600160a01b0316036117e05760405162461bcd60e51b8152602060048201526016602482015275496e76616c6964206d656d626572206164647265737360501b60448201526064016103dc565b6001600160a01b038116331480159061180057506117fe8482611889565b155b15611834576001838101805491820181555f908152602090200180546001600160a01b0319166001600160a01b0383161790555b50600101611760565b50336001600160a01b0316827faa7a17766caacdd31354fc98748cb61a339ca064127a84029a56095988e1afcb868660405161187a9291906121b6565b60405180910390a35092915050565b5f828152600160208190526040822001815b81548110156118ec57836001600160a01b03168282815481106118c0576118c0611f99565b5f918252602090912001546001600160a01b0316036118e4576001925050506118f2565b60010161189b565b505f9150505b92915050565b604080516001600160a01b038581166024830152841660448201526064808201849052825180830390910181526084909101909152602080820180516001600160e01b03166323b872dd60e01b1781528251610c3a93889390925f9283929183919082885af18061196e576040513d5f823e3d81fd5b50505f513d91508115611985578060011415611992565b6001600160a01b0384163b155b15610c3a57604051635274afe760e01b81526001600160a01b03851660048201526024016103dc565b828054828255905f5260205f20908101928215611a0e579160200282015b82811115611a0e57825182546001600160a01b0319166001600160a01b039091161782556020909201916001909101906119d9565b50611a1a929150611a1e565b5090565b5b80821115611a1a575f8155600101611a1f565b634e487b7160e01b5f52604160045260245ffd5b604051601f8201601f1916810167ffffffffffffffff81118282101715611a6f57611a6f611a32565b604052919050565b80356001600160a01b0381168114611a8d575f5ffd5b919050565b5f82601f830112611aa1575f5ffd5b813567ffffffffffffffff811115611abb57611abb611a32565b8060051b611acb60208201611a46565b91825260208185018101929081019086841115611ae6575f5ffd5b6020860192505b83831015611b0f57611afe83611a77565b825260209283019290910190611aed565b9695505050505050565b5f5f5f5f60808587031215611b2c575f5ffd5b84359350602085013567ffffffffffffffff811115611b49575f5ffd5b8501601f81018713611b59575f5ffd5b803567ffffffffffffffff811115611b7357611b73611a32565b611b86601f8201601f1916602001611a46565b818152886020838501011115611b9a575f5ffd5b816020840160208301375f9181016020019190915293505060408501359150606085013567ffffffffffffffff811115611bd2575f5ffd5b611bde87828801611a92565b91505092959194509250565b5f5f60408385031215611bfb575f5ffd5b50508035926020909101359150565b5f81518084528060208401602086015e5f602082860101526020601f19601f83011685010191505092915050565b86815260c060208201525f611c5060c0830188611c0a565b6001600160a01b039687166040840152606083019590955250608081019290925290921660a09092019190915292915050565b5f5f5f60608486031215611c95575f5ffd5b83359250611ca560208501611a77565b9150611cb360408501611a77565b90509250925092565b5f5f60408385031215611ccd575f5ffd5b82359150611cdd60208401611a77565b90509250929050565b5f60208284031215611cf6575f5ffd5b5035919050565b5f5f5f60608486031215611d0f575f5ffd5b83359250611d1f60208501611a77565b929592945050506040919091013590565b5f602082016020835280845180835260408501915060408160051b8601019250602086015f5b82811015611e3157603f19878603018452815180518652602081015160e06020880152611d8660e0880182611c0a565b6040838101516001600160a01b03169089015260608084015190890152608080840151898303918a01919091528051808352602091820193505f9291909101905b80831015611df25783516001600160a01b031682526020938401936001939093019290910190611dc7565b5060a084015160a08a015260c08401519350611e1960c08a01856001600160a01b03169052565b97505050602094850194929092019150600101611d56565b50929695505050505050565b5f8151808452602084019350602083015f5b82811015611e765781516001600160a01b0316865260209586019590910190600101611e4f565b5093949350505050565b604081525f611e926040830185611e3d565b82810360208401528084518083526020830191506020860192505f5b81811015611ecc578351835260209384019390920191600101611eae565b50909695505050505050565b6001600160a01b038716815260c0602082018190525f90611efb90830188611e3d565b60408301969096525060608101939093526001600160a01b0391909116608083015260a09091015292915050565b5f5f60408385031215611f3a575f5ffd5b823567ffffffffffffffff811115611f50575f5ffd5b611f5c85828601611a92565b925050611cdd60208401611a77565b60208082526014908201527314dc1b1a5d08191bd95cc81b9bdd08195e1a5cdd60621b604082015260600190565b634e487b7160e01b5f52603260045260245ffd5b600181811c90821680611fc157607f821691505b60208210810361133157634e487b7160e01b5f52602260045260245ffd5b601f82111561202657805f5260205f20601f840160051c810160208510156120045750805b601f840160051c820191505b81811015612023575f8155600101612010565b50505b505050565b815167ffffffffffffffff81111561204557612045611a32565b612059816120538454611fad565b84611fdf565b6020601f82116001811461208b575f83156120745750848201515b5f19600385901b1c1916600184901b178455612023565b5f84815260208120601f198516915b828110156120ba578785015182556020948501946001909201910161209a565b50848210156120d757868401515f19600387901b60f8161c191681555b50505050600190811b01905550565b634e487b7160e01b5f52601160045260245ffd5b5f6001820161210b5761210b6120e6565b5060010190565b5f8261212c57634e487b7160e01b5f52601260045260245ffd5b500490565b808201808211156118f2576118f26120e6565b85815260a060208201525f61215c60a0830187611c0a565b85604084015282810360608401526121748186611e3d565b91505060018060a01b03831660808301529695505050505050565b818103818111156118f2576118f26120e6565b634e487b7160e01b5f52603160045260245ffd5b604081525f6121c86040830185611e3d565b905060018060a01b0383166020830152939250505056fea26469706673582212203036f6062d7796187075e674d0f0ee505570127b5b1da15a5f45750b8b46f2ec64736f6c634300081c0033",
  "linkReferences": {},
  "deployedLinkReferences": {},
  "immutableReferences": {},
  "inputSourceName": "project/contracts/SplitManager.sol",
  "buildInfoId": "solc-0_8_28-676e76ad2ca27946dc35268e37c7b4da68c3a5e8"
}